{
  "contractName": "IntermediateMarket",
  "abi": [
    {
      "anonymous": false,
      "inputs": [
        {
          "indexed": true,
          "internalType": "bytes32",
          "name": "id",
          "type": "bytes32"
        },
        {
          "indexed": true,
          "internalType": "bytes32",
          "name": "pair",
          "type": "bytes32"
        },
        {
          "indexed": true,
          "internalType": "address",
          "name": "maker",
          "type": "address"
        },
        {
          "indexed": false,
          "internalType": "contract ERC20",
          "name": "pay_gem",
          "type": "address"
        },
        {
          "indexed": false,
          "internalType": "contract ERC20",
          "name": "buy_gem",
          "type": "address"
        },
        {
          "indexed": false,
          "internalType": "uint128",
          "name": "pay_amt",
          "type": "uint128"
        },
        {
          "indexed": false,
          "internalType": "uint128",
          "name": "buy_amt",
          "type": "uint128"
        },
        {
          "indexed": false,
          "internalType": "uint64",
          "name": "timestamp",
          "type": "uint64"
        }
      ],
      "name": "LogBump",
      "type": "event"
    },
    {
      "anonymous": false,
      "inputs": [
        {
          "indexed": false,
          "internalType": "uint256",
          "name": "id",
          "type": "uint256"
        }
      ],
      "name": "LogItemUpdate",
      "type": "event"
    },
    {
      "anonymous": false,
      "inputs": [
        {
          "indexed": true,
          "internalType": "bytes32",
          "name": "id",
          "type": "bytes32"
        },
        {
          "indexed": true,
          "internalType": "bytes32",
          "name": "pair",
          "type": "bytes32"
        },
        {
          "indexed": true,
          "internalType": "address",
          "name": "maker",
          "type": "address"
        },
        {
          "indexed": false,
          "internalType": "contract ERC20",
          "name": "pay_gem",
          "type": "address"
        },
        {
          "indexed": false,
          "internalType": "contract ERC20",
          "name": "buy_gem",
          "type": "address"
        },
        {
          "indexed": false,
          "internalType": "uint128",
          "name": "pay_amt",
          "type": "uint128"
        },
        {
          "indexed": false,
          "internalType": "uint128",
          "name": "buy_amt",
          "type": "uint128"
        },
        {
          "indexed": false,
          "internalType": "uint64",
          "name": "timestamp",
          "type": "uint64"
        }
      ],
      "name": "LogKill",
      "type": "event"
    },
    {
      "anonymous": false,
      "inputs": [
        {
          "indexed": true,
          "internalType": "bytes32",
          "name": "id",
          "type": "bytes32"
        },
        {
          "indexed": true,
          "internalType": "bytes32",
          "name": "pair",
          "type": "bytes32"
        },
        {
          "indexed": true,
          "internalType": "address",
          "name": "maker",
          "type": "address"
        },
        {
          "indexed": false,
          "internalType": "contract ERC20",
          "name": "pay_gem",
          "type": "address"
        },
        {
          "indexed": false,
          "internalType": "contract ERC20",
          "name": "buy_gem",
          "type": "address"
        },
        {
          "indexed": false,
          "internalType": "uint128",
          "name": "pay_amt",
          "type": "uint128"
        },
        {
          "indexed": false,
          "internalType": "uint128",
          "name": "buy_amt",
          "type": "uint128"
        },
        {
          "indexed": false,
          "internalType": "uint64",
          "name": "timestamp",
          "type": "uint64"
        }
      ],
      "name": "LogMake",
      "type": "event"
    },
    {
      "anonymous": false,
      "inputs": [
        {
          "indexed": false,
          "internalType": "bytes32",
          "name": "id",
          "type": "bytes32"
        },
        {
          "indexed": true,
          "internalType": "bytes32",
          "name": "pair",
          "type": "bytes32"
        },
        {
          "indexed": true,
          "internalType": "address",
          "name": "maker",
          "type": "address"
        },
        {
          "indexed": false,
          "internalType": "contract ERC20",
          "name": "pay_gem",
          "type": "address"
        },
        {
          "indexed": false,
          "internalType": "contract ERC20",
          "name": "buy_gem",
          "type": "address"
        },
        {
          "indexed": true,
          "internalType": "address",
          "name": "taker",
          "type": "address"
        },
        {
          "indexed": false,
          "internalType": "uint128",
          "name": "take_amt",
          "type": "uint128"
        },
        {
          "indexed": false,
          "internalType": "uint128",
          "name": "give_amt",
          "type": "uint128"
        },
        {
          "indexed": false,
          "internalType": "uint64",
          "name": "timestamp",
          "type": "uint64"
        }
      ],
      "name": "LogTake",
      "type": "event"
    },
    {
      "anonymous": false,
      "inputs": [
        {
          "indexed": false,
          "internalType": "uint256",
          "name": "pay_amt",
          "type": "uint256"
        },
        {
          "indexed": true,
          "internalType": "address",
          "name": "pay_gem",
          "type": "address"
        },
        {
          "indexed": false,
          "internalType": "uint256",
          "name": "buy_amt",
          "type": "uint256"
        },
        {
          "indexed": true,
          "internalType": "address",
          "name": "buy_gem",
          "type": "address"
        }
      ],
      "name": "LogTrade",
      "type": "event"
    },
    {
      "inputs": [
        {
          "internalType": "bytes32",
          "name": "id_",
          "type": "bytes32"
        }
      ],
      "name": "bump",
      "outputs": [],
      "stateMutability": "nonpayable",
      "type": "function"
    },
    {
      "inputs": [
        {
          "internalType": "uint256",
          "name": "id",
          "type": "uint256"
        },
        {
          "internalType": "uint256",
          "name": "quantity",
          "type": "uint256"
        }
      ],
      "name": "buy",
      "outputs": [
        {
          "internalType": "bool",
          "name": "",
          "type": "bool"
        }
      ],
      "stateMutability": "nonpayable",
      "type": "function"
    },
    {
      "inputs": [
        {
          "internalType": "uint256",
          "name": "id",
          "type": "uint256"
        }
      ],
      "name": "cancel",
      "outputs": [
        {
          "internalType": "bool",
          "name": "success",
          "type": "bool"
        }
      ],
      "stateMutability": "nonpayable",
      "type": "function"
    },
    {
      "inputs": [
        {
          "internalType": "uint256",
          "name": "id",
          "type": "uint256"
        }
      ],
      "name": "getOffer",
      "outputs": [
        {
          "internalType": "uint256",
          "name": "",
          "type": "uint256"
        },
        {
          "internalType": "contract ERC20",
          "name": "",
          "type": "address"
        },
        {
          "internalType": "uint256",
          "name": "",
          "type": "uint256"
        },
        {
          "internalType": "contract ERC20",
          "name": "",
          "type": "address"
        }
      ],
      "stateMutability": "view",
      "type": "function",
      "constant": true
    },
    {
      "inputs": [
        {
          "internalType": "uint256",
          "name": "id",
          "type": "uint256"
        }
      ],
      "name": "getOwner",
      "outputs": [
        {
          "internalType": "address",
          "name": "owner",
          "type": "address"
        }
      ],
      "stateMutability": "view",
      "type": "function",
      "constant": true
    },
    {
      "inputs": [
        {
          "internalType": "uint256",
          "name": "id",
          "type": "uint256"
        }
      ],
      "name": "isActive",
      "outputs": [
        {
          "internalType": "bool",
          "name": "active",
          "type": "bool"
        }
      ],
      "stateMutability": "view",
      "type": "function",
      "constant": true
    },
    {
      "inputs": [
        {
          "internalType": "bytes32",
          "name": "id",
          "type": "bytes32"
        }
      ],
      "name": "kill",
      "outputs": [],
      "stateMutability": "nonpayable",
      "type": "function"
    },
    {
      "inputs": [],
      "name": "last_offer_id",
      "outputs": [
        {
          "internalType": "uint256",
          "name": "",
          "type": "uint256"
        }
      ],
      "stateMutability": "view",
      "type": "function",
      "constant": true
    },
    {
      "inputs": [
        {
          "internalType": "contract ERC20",
          "name": "pay_gem",
          "type": "address"
        },
        {
          "internalType": "contract ERC20",
          "name": "buy_gem",
          "type": "address"
        },
        {
          "internalType": "uint128",
          "name": "pay_amt",
          "type": "uint128"
        },
        {
          "internalType": "uint128",
          "name": "buy_amt",
          "type": "uint128"
        }
      ],
      "name": "make",
      "outputs": [
        {
          "internalType": "bytes32",
          "name": "id",
          "type": "bytes32"
        }
      ],
      "stateMutability": "nonpayable",
      "type": "function"
    },
    {
      "inputs": [
        {
          "internalType": "uint256",
          "name": "pay_amt",
          "type": "uint256"
        },
        {
          "internalType": "contract ERC20",
          "name": "pay_gem",
          "type": "address"
        },
        {
          "internalType": "uint256",
          "name": "buy_amt",
          "type": "uint256"
        },
        {
          "internalType": "contract ERC20",
          "name": "buy_gem",
          "type": "address"
        }
      ],
      "name": "offer",
      "outputs": [
        {
          "internalType": "uint256",
          "name": "id",
          "type": "uint256"
        }
      ],
      "stateMutability": "nonpayable",
      "type": "function"
    },
    {
      "inputs": [
        {
          "internalType": "uint256",
          "name": "",
          "type": "uint256"
        }
      ],
      "name": "offers",
      "outputs": [
        {
          "internalType": "uint256",
          "name": "pay_amt",
          "type": "uint256"
        },
        {
          "internalType": "contract ERC20",
          "name": "pay_gem",
          "type": "address"
        },
        {
          "internalType": "uint256",
          "name": "buy_amt",
          "type": "uint256"
        },
        {
          "internalType": "contract ERC20",
          "name": "buy_gem",
          "type": "address"
        },
        {
          "internalType": "address",
          "name": "owner",
          "type": "address"
        },
        {
          "internalType": "uint64",
          "name": "timestamp",
          "type": "uint64"
        }
      ],
      "stateMutability": "view",
      "type": "function",
      "constant": true
    },
    {
      "inputs": [
        {
          "internalType": "bytes32",
          "name": "id",
          "type": "bytes32"
        },
        {
          "internalType": "uint128",
          "name": "maxTakeAmount",
          "type": "uint128"
        }
      ],
      "name": "take",
      "outputs": [],
      "stateMutability": "nonpayable",
      "type": "function"
    },
    {
      "inputs": [
        {
          "internalType": "uint256",
          "name": "amt",
          "type": "uint256"
        }
      ],
      "name": "AuthorizeUSDT",
      "outputs": [
        {
          "internalType": "bool",
          "name": "",
          "type": "bool"
        }
      ],
      "stateMutability": "nonpayable",
      "type": "function"
    },
    {
      "inputs": [
        {
          "internalType": "uint256",
          "name": "amt",
          "type": "uint256"
        }
      ],
      "name": "AuthorizeCOMP",
      "outputs": [
        {
          "internalType": "bool",
          "name": "",
          "type": "bool"
        }
      ],
      "stateMutability": "nonpayable",
      "type": "function"
    }
  ],
  "bytecode": "0x608060405273110a13fc3efe6a245b50102d2d79b3e76125ae83600260016101000a81548173ffffffffffffffffffffffffffffffffffffffff021916908373ffffffffffffffffffffffffffffffffffffffff16021790555073f76d4a441e4ba86a923ce32b89aff89dbccaa075600360006101000a81548173ffffffffffffffffffffffffffffffffffffffff021916908373ffffffffffffffffffffffffffffffffffffffff1602179055503480156100ba57600080fd5b50612625806100ca6000396000f3fe608060405234801561001057600080fd5b50600436106100ea5760003560e01c80638a72ea6a1161008c578063cbe39f4911610066578063cbe39f4914610289578063d6febde8146102b9578063f09ea2a6146102e9578063f530a93b14610319576100ea565b80638a72ea6a14610208578063b4f9b6c81461023d578063c41a360a14610259576100ea565b80634579268a116100c85780634579268a1461016d57806349606455146101a0578063779997c3146101bc57806382afd23b146101d8576100ea565b8063093f5198146100ef578063232cae0b1461011f57806340e58ee51461013d575b600080fd5b61010960048036038101906101049190611b9c565b610349565b6040516101169190611c1c565b60405180910390f35b610127610388565b6040516101349190611c50565b60405180910390f35b61015760048036038101906101529190611c97565b61038e565b6040516101649190611cdf565b60405180910390f35b61018760048036038101906101829190611c97565b61074b565b6040516101979493929190611d59565b60405180910390f35b6101ba60048036038101906101b59190611dca565b6108df565b005b6101d660048036038101906101d19190611e0a565b61090b565b005b6101f260048036038101906101ed9190611c97565b610b12565b6040516101ff9190611cdf565b60405180910390f35b610222600480360381019061021d9190611c97565b610b52565b60405161023496959493929190611e69565b60405180910390f35b61025760048036038101906102529190611e0a565b610c02565b005b610273600480360381019061026e9190611c97565b610c1a565b6040516102809190611eca565b60405180910390f35b6102a3600480360381019061029e9190611c97565b610c5a565b6040516102b09190611cdf565b60405180910390f35b6102d360048036038101906102ce9190611ee5565b610d08565b6040516102e09190611cdf565b60405180910390f35b61030360048036038101906102fe9190611f25565b61121b565b6040516103109190611c50565b60405180910390f35b610333600480360381019061032e9190611c97565b61165c565b6040516103409190611cdf565b60405180910390f35b600061037b836fffffffffffffffffffffffffffffffff1686846fffffffffffffffffffffffffffffffff168761121b565b60001b9050949350505050565b60005481565b60008161039a81610b12565b6103a357600080fd5b3373ffffffffffffffffffffffffffffffffffffffff166103c382610c1a565b73ffffffffffffffffffffffffffffffffffffffff16146103e357600080fd5b600260009054906101000a900460ff16156103fd57600080fd5b6001600260006101000a81548160ff0219169083151502179055506000600160008581526020019081526020016000206040518060c0016040529081600082015481526020016001820160009054906101000a900473ffffffffffffffffffffffffffffffffffffffff1673ffffffffffffffffffffffffffffffffffffffff1673ffffffffffffffffffffffffffffffffffffffff168152602001600282015481526020016003820160009054906101000a900473ffffffffffffffffffffffffffffffffffffffff1673ffffffffffffffffffffffffffffffffffffffff1673ffffffffffffffffffffffffffffffffffffffff1681526020016004820160009054906101000a900473ffffffffffffffffffffffffffffffffffffffff1673ffffffffffffffffffffffffffffffffffffffff1673ffffffffffffffffffffffffffffffffffffffff1681526020016004820160149054906101000a900467ffffffffffffffff1667ffffffffffffffff1667ffffffffffffffff16815250509050600160008581526020019081526020016000206000808201600090556001820160006101000a81549073ffffffffffffffffffffffffffffffffffffffff021916905560028201600090556003820160006101000a81549073ffffffffffffffffffffffffffffffffffffffff02191690556004820160006101000a81549073ffffffffffffffffffffffffffffffffffffffff02191690556004820160146101000a81549067ffffffffffffffff0219169055505061064f81602001518260800151836000015161170a565b7fa2c251311b1a7a475913900a2a73dc9789a21b04bc737e050bbc506dd4eb34888460405161067e9190611c50565b60405180910390a1806080015173ffffffffffffffffffffffffffffffffffffffff16816020015182606001516040516020016106bc929190611fd4565b604051602081830303815290604052805190602001208560001b7f9577941d28fff863bfbee4694a6a4a56fb09e169619189d2eaa750b5b481999584602001518560600151866000015187604001514260405161071d95949392919061200f565b60405180910390a460019250506000600260006101000a81548160ff02191690831515021790555050919050565b6000806000806000600160008781526020019081526020016000206040518060c0016040529081600082015481526020016001820160009054906101000a900473ffffffffffffffffffffffffffffffffffffffff1673ffffffffffffffffffffffffffffffffffffffff1673ffffffffffffffffffffffffffffffffffffffff168152602001600282015481526020016003820160009054906101000a900473ffffffffffffffffffffffffffffffffffffffff1673ffffffffffffffffffffffffffffffffffffffff1673ffffffffffffffffffffffffffffffffffffffff1681526020016004820160009054906101000a900473ffffffffffffffffffffffffffffffffffffffff1673ffffffffffffffffffffffffffffffffffffffff1673ffffffffffffffffffffffffffffffffffffffff1681526020016004820160149054906101000a900467ffffffffffffffff1667ffffffffffffffff1667ffffffffffffffff1681525050905080600001518160200151826040015183606001519450945094509450509193509193565b6108fe8260001c826fffffffffffffffffffffffffffffffff16610d08565b61090757600080fd5b5050565b8060001c61091881610b12565b61092157600080fd5b60008260001c90506001600082815260200190815260200160002060040160009054906101000a900473ffffffffffffffffffffffffffffffffffffffff1673ffffffffffffffffffffffffffffffffffffffff166001600083815260200190815260200160002060010160009054906101000a900473ffffffffffffffffffffffffffffffffffffffff166001600084815260200190815260200160002060030160009054906101000a900473ffffffffffffffffffffffffffffffffffffffff166040516020016109f5929190611fd4565b60405160208183030381529060405280519060200120847f70a14c213064359ede031fd2a1645a11ce2ec825ffe6ab5cfb5b160c3ef4d0a26001600086815260200190815260200160002060010160009054906101000a900473ffffffffffffffffffffffffffffffffffffffff166001600087815260200190815260200160002060030160009054906101000a900473ffffffffffffffffffffffffffffffffffffffff1660016000888152602001908152602001600020600001546001600089815260200190815260200160002060020154600160008a815260200190815260200160002060040160149054906101000a900467ffffffffffffffff16604051610b0595949392919061200f565b60405180910390a4505050565b6000806001600084815260200190815260200160002060040160149054906101000a900467ffffffffffffffff1667ffffffffffffffff16119050919050565b60016020528060005260406000206000915090508060000154908060010160009054906101000a900473ffffffffffffffffffffffffffffffffffffffff16908060020154908060030160009054906101000a900473ffffffffffffffffffffffffffffffffffffffff16908060040160009054906101000a900473ffffffffffffffffffffffffffffffffffffffff16908060040160149054906101000a900467ffffffffffffffff16905086565b610c0e8160001c61038e565b610c1757600080fd5b50565b60006001600083815260200190815260200160002060040160009054906101000a900473ffffffffffffffffffffffffffffffffffffffff169050919050565b600080600260019054906101000a900473ffffffffffffffffffffffffffffffffffffffff1690508073ffffffffffffffffffffffffffffffffffffffff1663095ea7b330856040518363ffffffff1660e01b8152600401610cbd929190612062565b6020604051808303816000875af1158015610cdc573d6000803e3d6000fd5b505050506040513d601f19601f82011682018060405250810190610d0091906120b7565b915050919050565b600082610d1481610b12565b610d1d57600080fd5b600260009054906101000a900460ff1615610d3757600080fd5b6001600260006101000a81548160ff0219169083151502179055506000600160008681526020019081526020016000206040518060c0016040529081600082015481526020016001820160009054906101000a900473ffffffffffffffffffffffffffffffffffffffff1673ffffffffffffffffffffffffffffffffffffffff1673ffffffffffffffffffffffffffffffffffffffff168152602001600282015481526020016003820160009054906101000a900473ffffffffffffffffffffffffffffffffffffffff1673ffffffffffffffffffffffffffffffffffffffff1673ffffffffffffffffffffffffffffffffffffffff1681526020016004820160009054906101000a900473ffffffffffffffffffffffffffffffffffffffff1673ffffffffffffffffffffffffffffffffffffffff1673ffffffffffffffffffffffffffffffffffffffff1681526020016004820160149054906101000a900467ffffffffffffffff1667ffffffffffffffff1667ffffffffffffffff1681525050905060008160000151610ed1868460400151611790565b610edb9190612142565b905080816fffffffffffffffffffffffffffffffff1614610efb57600080fd5b84856fffffffffffffffffffffffffffffffff1614610f1957600080fd5b6000851480610f285750600081145b80610f365750816000015185115b80610f445750816040015181115b15610f54576000935050506111f9565b610f628260000151866117fd565b6001600088815260200190815260200160002060000181905550610f8a8260400151826117fd565b6001600088815260200190815260200160002060020181905550610fb8826060015133846080015184611856565b610fc78260200151338761170a565b7fa2c251311b1a7a475913900a2a73dc9789a21b04bc737e050bbc506dd4eb348886604051610ff69190611c50565b60405180910390a13373ffffffffffffffffffffffffffffffffffffffff16826080015173ffffffffffffffffffffffffffffffffffffffff168360200151846060015160405160200161104b929190611fd4565b604051602081830303815290604052805190602001207f3383e3357c77fd2e3a4b30deea81179bc70a795d053d14d5b7f2f01d0fd4596f8960001b866020015187606001518b88426040516110a596959493929190612173565b60405180910390a4816060015173ffffffffffffffffffffffffffffffffffffffff16826020015173ffffffffffffffffffffffffffffffffffffffff167f819e390338feffe95e2de57172d6faf337853dfd15c7a09a32d76f7fd244387587846040516111149291906121d4565b60405180910390a36000600160008881526020019081526020016000206000015414156111f257600160008781526020019081526020016000206000808201600090556001820160006101000a81549073ffffffffffffffffffffffffffffffffffffffff021916905560028201600090556003820160006101000a81549073ffffffffffffffffffffffffffffffffffffffff02191690556004820160006101000a81549073ffffffffffffffffffffffffffffffffffffffff02191690556004820160146101000a81549067ffffffffffffffff021916905550505b6001935050505b6000600260006101000a81548160ff0219169083151502179055505092915050565b6000600260009054906101000a900460ff161561123757600080fd5b6001600260006101000a81548160ff02191690831515021790555084856fffffffffffffffffffffffffffffffff161461127057600080fd5b82836fffffffffffffffffffffffffffffffff161461128e57600080fd5b6000851161129b57600080fd5b600073ffffffffffffffffffffffffffffffffffffffff168473ffffffffffffffffffffffffffffffffffffffff1614156112d557600080fd5b600083116112e257600080fd5b600073ffffffffffffffffffffffffffffffffffffffff168273ffffffffffffffffffffffffffffffffffffffff16141561131c57600080fd5b8173ffffffffffffffffffffffffffffffffffffffff168473ffffffffffffffffffffffffffffffffffffffff16141561135557600080fd5b61135d611a5d565b8581600001818152505084816020019073ffffffffffffffffffffffffffffffffffffffff16908173ffffffffffffffffffffffffffffffffffffffff16815250508381604001818152505082816060019073ffffffffffffffffffffffffffffffffffffffff16908173ffffffffffffffffffffffffffffffffffffffff168152505033816080019073ffffffffffffffffffffffffffffffffffffffff16908173ffffffffffffffffffffffffffffffffffffffff1681525050428160a0019067ffffffffffffffff16908167ffffffffffffffff16815250506114416118df565b915080600160008481526020019081526020016000206000820151816000015560208201518160010160006101000a81548173ffffffffffffffffffffffffffffffffffffffff021916908373ffffffffffffffffffffffffffffffffffffffff1602179055506040820151816002015560608201518160030160006101000a81548173ffffffffffffffffffffffffffffffffffffffff021916908373ffffffffffffffffffffffffffffffffffffffff16021790555060808201518160040160006101000a81548173ffffffffffffffffffffffffffffffffffffffff021916908373ffffffffffffffffffffffffffffffffffffffff16021790555060a08201518160040160146101000a81548167ffffffffffffffff021916908367ffffffffffffffff16021790555090505061157e85333089611856565b7fa2c251311b1a7a475913900a2a73dc9789a21b04bc737e050bbc506dd4eb3488826040516115ad9190611c50565b60405180910390a13373ffffffffffffffffffffffffffffffffffffffff1685846040516020016115df929190611fd4565b604051602081830303815290604052805190602001208360001b7f773ff502687307abfa024ac9f62f9752a0d210dac2ffd9a29e38e12e2ea82c8288878b8a4260405161163095949392919061200f565b60405180910390a4506000600260006101000a81548160ff021916908315150217905550949350505050565b600080600360009054906101000a900473ffffffffffffffffffffffffffffffffffffffff1690508073ffffffffffffffffffffffffffffffffffffffff1663095ea7b330856040518363ffffffff1660e01b81526004016116bf929190612062565b6020604051808303816000875af11580156116de573d6000803e3d6000fd5b505050506040513d601f19601f8201168201806040525081019061170291906120b7565b915050919050565b61178b8363a9059cbb60e01b8484604051602401611729929190612062565b604051602081830303815290604052907bffffffffffffffffffffffffffffffffffffffffffffffffffffffff19166020820180517bffffffffffffffffffffffffffffffffffffffffffffffffffffffff8381831617835250505050611900565b505050565b6000808214806117b85750828283856117a991906121fd565b9250826117b69190612142565b145b6117f7576040517f08c379a00000000000000000000000000000000000000000000000000000000081526004016117ee906122b4565b60405180910390fd5b92915050565b600082828461180c91906122d4565b9150811115611850576040517f08c379a000000000000000000000000000000000000000000000000000000000815260040161184790612354565b60405180910390fd5b92915050565b6118d9846323b872dd60e01b85858560405160240161187793929190612374565b604051602081830303815290604052907bffffffffffffffffffffffffffffffffffffffffffffffffffffffff19166020820180517bffffffffffffffffffffffffffffffffffffffffffffffffffffffff8381831617835250505050611900565b50505050565b60008060008154809291906118f3906123ab565b9190505550600054905090565b6000823b905060008111611949576040517f08c379a000000000000000000000000000000000000000000000000000000000815260040161194090612440565b60405180910390fd5b6000808473ffffffffffffffffffffffffffffffffffffffff168460405161197191906124da565b6000604051808303816000865af19150503d80600081146119ae576040519150601f19603f3d011682016040523d82523d6000602084013e6119b3565b606091505b5091509150816119f8576040517f08c379a00000000000000000000000000000000000000000000000000000000081526004016119ef9061253d565b60405180910390fd5b600081511115611a565780806020019051810190611a1691906120b7565b611a55576040517f08c379a0000000000000000000000000000000000000000000000000000000008152600401611a4c906125cf565b60405180910390fd5b5b5050505050565b6040518060c0016040528060008152602001600073ffffffffffffffffffffffffffffffffffffffff16815260200160008152602001600073ffffffffffffffffffffffffffffffffffffffff168152602001600073ffffffffffffffffffffffffffffffffffffffff168152602001600067ffffffffffffffff1681525090565b600080fd5b600073ffffffffffffffffffffffffffffffffffffffff82169050919050565b6000611b0f82611ae4565b9050919050565b6000611b2182611b04565b9050919050565b611b3181611b16565b8114611b3c57600080fd5b50565b600081359050611b4e81611b28565b92915050565b60006fffffffffffffffffffffffffffffffff82169050919050565b611b7981611b54565b8114611b8457600080fd5b50565b600081359050611b9681611b70565b92915050565b60008060008060808587031215611bb657611bb5611adf565b5b6000611bc487828801611b3f565b9450506020611bd587828801611b3f565b9350506040611be687828801611b87565b9250506060611bf787828801611b87565b91505092959194509250565b6000819050919050565b611c1681611c03565b82525050565b6000602082019050611c316000830184611c0d565b92915050565b6000819050919050565b611c4a81611c37565b82525050565b6000602082019050611c656000830184611c41565b92915050565b611c7481611c37565b8114611c7f57600080fd5b50565b600081359050611c9181611c6b565b92915050565b600060208284031215611cad57611cac611adf565b5b6000611cbb84828501611c82565b91505092915050565b60008115159050919050565b611cd981611cc4565b82525050565b6000602082019050611cf46000830184611cd0565b92915050565b6000819050919050565b6000611d1f611d1a611d1584611ae4565b611cfa565b611ae4565b9050919050565b6000611d3182611d04565b9050919050565b6000611d4382611d26565b9050919050565b611d5381611d38565b82525050565b6000608082019050611d6e6000830187611c41565b611d7b6020830186611d4a565b611d886040830185611c41565b611d956060830184611d4a565b95945050505050565b611da781611c03565b8114611db257600080fd5b50565b600081359050611dc481611d9e565b92915050565b60008060408385031215611de157611de0611adf565b5b6000611def85828601611db5565b9250506020611e0085828601611b87565b9150509250929050565b600060208284031215611e2057611e1f611adf565b5b6000611e2e84828501611db5565b91505092915050565b611e4081611b04565b82525050565b600067ffffffffffffffff82169050919050565b611e6381611e46565b82525050565b600060c082019050611e7e6000830189611c41565b611e8b6020830188611d4a565b611e986040830187611c41565b611ea56060830186611d4a565b611eb26080830185611e37565b611ebf60a0830184611e5a565b979650505050505050565b6000602082019050611edf6000830184611e37565b92915050565b60008060408385031215611efc57611efb611adf565b5b6000611f0a85828601611c82565b9250506020611f1b85828601611c82565b9150509250929050565b60008060008060808587031215611f3f57611f3e611adf565b5b6000611f4d87828801611c82565b9450506020611f5e87828801611b3f565b9350506040611f6f87828801611c82565b9250506060611f8087828801611b3f565b91505092959194509250565b60008160601b9050919050565b6000611fa482611f8c565b9050919050565b6000611fb682611f99565b9050919050565b611fce611fc982611d38565b611fab565b82525050565b6000611fe08285611fbd565b601482019150611ff08284611fbd565b6014820191508190509392505050565b61200981611b54565b82525050565b600060a0820190506120246000830188611d4a565b6120316020830187611d4a565b61203e6040830186612000565b61204b6060830185612000565b6120586080830184611e5a565b9695505050505050565b60006040820190506120776000830185611e37565b6120846020830184611c41565b9392505050565b61209481611cc4565b811461209f57600080fd5b50565b6000815190506120b18161208b565b92915050565b6000602082840312156120cd576120cc611adf565b5b60006120db848285016120a2565b91505092915050565b7f4e487b7100000000000000000000000000000000000000000000000000000000600052601260045260246000fd5b7f4e487b7100000000000000000000000000000000000000000000000000000000600052601160045260246000fd5b600061214d82611c37565b915061215883611c37565b925082612168576121676120e4565b5b828204905092915050565b600060c0820190506121886000830189611c0d565b6121956020830188611d4a565b6121a26040830187611d4a565b6121af6060830186612000565b6121bc6080830185612000565b6121c960a0830184611e5a565b979650505050505050565b60006040820190506121e96000830185611c41565b6121f66020830184611c41565b9392505050565b600061220882611c37565b915061221383611c37565b9250817fffffffffffffffffffffffffffffffffffffffffffffffffffffffffffffffff048311821515161561224c5761224b612113565b5b828202905092915050565b600082825260208201905092915050565b7f64732d6d6174682d6d756c2d6f766572666c6f77000000000000000000000000600082015250565b600061229e601483612257565b91506122a982612268565b602082019050919050565b600060208201905081810360008301526122cd81612291565b9050919050565b60006122df82611c37565b91506122ea83611c37565b9250828210156122fd576122fc612113565b5b828203905092915050565b7f64732d6d6174682d7375622d756e646572666c6f770000000000000000000000600082015250565b600061233e601583612257565b915061234982612308565b602082019050919050565b6000602082019050818103600083015261236d81612331565b9050919050565b60006060820190506123896000830186611e37565b6123966020830185611e37565b6123a36040830184611c41565b949350505050565b60006123b682611c37565b91507fffffffffffffffffffffffffffffffffffffffffffffffffffffffffffffffff8214156123e9576123e8612113565b5b600182019050919050565b7f4e6f74206120636f6e7472616374000000000000000000000000000000000000600082015250565b600061242a600e83612257565b9150612435826123f4565b602082019050919050565b600060208201905081810360008301526124598161241d565b9050919050565b600081519050919050565b600081905092915050565b60005b83811015612494578082015181840152602081019050612479565b838111156124a3576000848401525b50505050565b60006124b482612460565b6124be818561246b565b93506124ce818560208601612476565b80840191505092915050565b60006124e682846124a9565b915081905092915050565b7f546f6b656e2063616c6c206661696c6564000000000000000000000000000000600082015250565b6000612527601183612257565b9150612532826124f1565b602082019050919050565b600060208201905081810360008301526125568161251a565b9050919050565b7f5361666545524332303a204552433230206f7065726174696f6e20646964206e60008201527f6f74207375636365656400000000000000000000000000000000000000000000602082015250565b60006125b9602a83612257565b91506125c48261255d565b604082019050919050565b600060208201905081810360008301526125e8816125ac565b905091905056fea26469706673582212206893f3cae594d5083b8dffcbe5ec1081f3fcb8ffd9bbf3870e038ec87f079c5764736f6c634300080a0033",
  "immutableReferences": {},
  "source": "// Add Notes\r\n\r\npragma solidity >=0.8.0 <0.9.0;\r\n\r\nimport \"./SimpleMarket.sol\";\r\n\r\ncontract IntermediateEvents {\r\n   \r\n}\r\n\r\ncontract IntermediateMarket is SimpleMarket, IntermediateEvents {\r\n\r\n    address USDT_addr = address(0x110a13FC3efE6A245B50102D2d79B3E76125Ae83);\r\n    address COMP_addr = address(0xf76D4a441E4ba86A923ce32B89AFF89dBccAA075);\r\n\r\n    function AuthorizeUSDT(uint amt) public returns(bool) {\r\n        ERC20 USDT = ERC20(USDT_addr);\r\n        return USDT.approve(address(this), amt);\r\n    }\r\n\r\n    function AuthorizeCOMP(uint amt) public returns(bool) {\r\n        ERC20 COMP = ERC20(COMP_addr);\r\n        return COMP.approve(address(this), amt);\r\n    }\r\n\r\n}\r\n",
  "sourcePath": "/mnt/c/users/rhk59/documents/github/blockchain-developer-bootcamp-final-project/contracts/IntermediateMarket.sol",
  "compiler": {
    "name": "solc",
    "version": "0.8.10+commit.fc410830.Emscripten.clang"
  },
  "schemaVersion": "3.4.3",
  "updatedAt": "2021-12-01T02:23:03.107Z",
  "networkType": "ethereum",
  "devdoc": {
    "kind": "dev",
    "methods": {},
    "version": 1
  },
  "userdoc": {
    "kind": "user",
    "methods": {},
    "version": 1
  }
}