{
  "contractName": "SimpleMarket",
  "abi": [
    {
      "anonymous": false,
      "inputs": [
        {
          "indexed": true,
          "internalType": "bytes32",
          "name": "id",
          "type": "bytes32"
        },
        {
          "indexed": true,
          "internalType": "bytes32",
          "name": "pair",
          "type": "bytes32"
        },
        {
          "indexed": true,
          "internalType": "address",
          "name": "maker",
          "type": "address"
        },
        {
          "indexed": false,
          "internalType": "contract ERC20",
          "name": "pay_gem",
          "type": "address"
        },
        {
          "indexed": false,
          "internalType": "contract ERC20",
          "name": "buy_gem",
          "type": "address"
        },
        {
          "indexed": false,
          "internalType": "uint128",
          "name": "pay_amt",
          "type": "uint128"
        },
        {
          "indexed": false,
          "internalType": "uint128",
          "name": "buy_amt",
          "type": "uint128"
        },
        {
          "indexed": false,
          "internalType": "uint64",
          "name": "timestamp",
          "type": "uint64"
        }
      ],
      "name": "LogBump",
      "type": "event"
    },
    {
      "anonymous": false,
      "inputs": [
        {
          "indexed": false,
          "internalType": "uint256",
          "name": "id",
          "type": "uint256"
        }
      ],
      "name": "LogItemUpdate",
      "type": "event"
    },
    {
      "anonymous": false,
      "inputs": [
        {
          "indexed": true,
          "internalType": "bytes32",
          "name": "id",
          "type": "bytes32"
        },
        {
          "indexed": true,
          "internalType": "bytes32",
          "name": "pair",
          "type": "bytes32"
        },
        {
          "indexed": true,
          "internalType": "address",
          "name": "maker",
          "type": "address"
        },
        {
          "indexed": false,
          "internalType": "contract ERC20",
          "name": "pay_gem",
          "type": "address"
        },
        {
          "indexed": false,
          "internalType": "contract ERC20",
          "name": "buy_gem",
          "type": "address"
        },
        {
          "indexed": false,
          "internalType": "uint128",
          "name": "pay_amt",
          "type": "uint128"
        },
        {
          "indexed": false,
          "internalType": "uint128",
          "name": "buy_amt",
          "type": "uint128"
        },
        {
          "indexed": false,
          "internalType": "uint64",
          "name": "timestamp",
          "type": "uint64"
        }
      ],
      "name": "LogKill",
      "type": "event"
    },
    {
      "anonymous": false,
      "inputs": [
        {
          "indexed": true,
          "internalType": "bytes32",
          "name": "id",
          "type": "bytes32"
        },
        {
          "indexed": true,
          "internalType": "bytes32",
          "name": "pair",
          "type": "bytes32"
        },
        {
          "indexed": true,
          "internalType": "address",
          "name": "maker",
          "type": "address"
        },
        {
          "indexed": false,
          "internalType": "contract ERC20",
          "name": "pay_gem",
          "type": "address"
        },
        {
          "indexed": false,
          "internalType": "contract ERC20",
          "name": "buy_gem",
          "type": "address"
        },
        {
          "indexed": false,
          "internalType": "uint128",
          "name": "pay_amt",
          "type": "uint128"
        },
        {
          "indexed": false,
          "internalType": "uint128",
          "name": "buy_amt",
          "type": "uint128"
        },
        {
          "indexed": false,
          "internalType": "uint64",
          "name": "timestamp",
          "type": "uint64"
        }
      ],
      "name": "LogMake",
      "type": "event"
    },
    {
      "anonymous": false,
      "inputs": [
        {
          "indexed": false,
          "internalType": "bytes32",
          "name": "id",
          "type": "bytes32"
        },
        {
          "indexed": true,
          "internalType": "bytes32",
          "name": "pair",
          "type": "bytes32"
        },
        {
          "indexed": true,
          "internalType": "address",
          "name": "maker",
          "type": "address"
        },
        {
          "indexed": false,
          "internalType": "contract ERC20",
          "name": "pay_gem",
          "type": "address"
        },
        {
          "indexed": false,
          "internalType": "contract ERC20",
          "name": "buy_gem",
          "type": "address"
        },
        {
          "indexed": true,
          "internalType": "address",
          "name": "taker",
          "type": "address"
        },
        {
          "indexed": false,
          "internalType": "uint128",
          "name": "take_amt",
          "type": "uint128"
        },
        {
          "indexed": false,
          "internalType": "uint128",
          "name": "give_amt",
          "type": "uint128"
        },
        {
          "indexed": false,
          "internalType": "uint64",
          "name": "timestamp",
          "type": "uint64"
        }
      ],
      "name": "LogTake",
      "type": "event"
    },
    {
      "anonymous": false,
      "inputs": [
        {
          "indexed": false,
          "internalType": "uint256",
          "name": "pay_amt",
          "type": "uint256"
        },
        {
          "indexed": true,
          "internalType": "address",
          "name": "pay_gem",
          "type": "address"
        },
        {
          "indexed": false,
          "internalType": "uint256",
          "name": "buy_amt",
          "type": "uint256"
        },
        {
          "indexed": true,
          "internalType": "address",
          "name": "buy_gem",
          "type": "address"
        }
      ],
      "name": "LogTrade",
      "type": "event"
    },
    {
      "inputs": [],
      "name": "last_offer_id",
      "outputs": [
        {
          "internalType": "uint256",
          "name": "",
          "type": "uint256"
        }
      ],
      "stateMutability": "view",
      "type": "function"
    },
    {
      "inputs": [
        {
          "internalType": "uint256",
          "name": "",
          "type": "uint256"
        }
      ],
      "name": "offers",
      "outputs": [
        {
          "internalType": "uint256",
          "name": "pay_amt",
          "type": "uint256"
        },
        {
          "internalType": "contract ERC20",
          "name": "pay_gem",
          "type": "address"
        },
        {
          "internalType": "uint256",
          "name": "buy_amt",
          "type": "uint256"
        },
        {
          "internalType": "contract ERC20",
          "name": "buy_gem",
          "type": "address"
        },
        {
          "internalType": "address",
          "name": "owner",
          "type": "address"
        },
        {
          "internalType": "uint64",
          "name": "timestamp",
          "type": "uint64"
        }
      ],
      "stateMutability": "view",
      "type": "function"
    },
    {
      "inputs": [
        {
          "internalType": "uint256",
          "name": "id",
          "type": "uint256"
        }
      ],
      "name": "isActive",
      "outputs": [
        {
          "internalType": "bool",
          "name": "active",
          "type": "bool"
        }
      ],
      "stateMutability": "view",
      "type": "function"
    },
    {
      "inputs": [
        {
          "internalType": "uint256",
          "name": "id",
          "type": "uint256"
        }
      ],
      "name": "getOwner",
      "outputs": [
        {
          "internalType": "address",
          "name": "owner",
          "type": "address"
        }
      ],
      "stateMutability": "view",
      "type": "function"
    },
    {
      "inputs": [
        {
          "internalType": "uint256",
          "name": "id",
          "type": "uint256"
        }
      ],
      "name": "getOffer",
      "outputs": [
        {
          "internalType": "uint256",
          "name": "",
          "type": "uint256"
        },
        {
          "internalType": "contract ERC20",
          "name": "",
          "type": "address"
        },
        {
          "internalType": "uint256",
          "name": "",
          "type": "uint256"
        },
        {
          "internalType": "contract ERC20",
          "name": "",
          "type": "address"
        }
      ],
      "stateMutability": "view",
      "type": "function"
    },
    {
      "inputs": [
        {
          "internalType": "bytes32",
          "name": "id_",
          "type": "bytes32"
        }
      ],
      "name": "bump",
      "outputs": [],
      "stateMutability": "nonpayable",
      "type": "function"
    },
    {
      "inputs": [
        {
          "internalType": "uint256",
          "name": "id",
          "type": "uint256"
        },
        {
          "internalType": "uint256",
          "name": "quantity",
          "type": "uint256"
        }
      ],
      "name": "buy",
      "outputs": [
        {
          "internalType": "bool",
          "name": "",
          "type": "bool"
        }
      ],
      "stateMutability": "nonpayable",
      "type": "function"
    },
    {
      "inputs": [
        {
          "internalType": "uint256",
          "name": "id",
          "type": "uint256"
        }
      ],
      "name": "cancel",
      "outputs": [
        {
          "internalType": "bool",
          "name": "success",
          "type": "bool"
        }
      ],
      "stateMutability": "nonpayable",
      "type": "function"
    },
    {
      "inputs": [
        {
          "internalType": "bytes32",
          "name": "id",
          "type": "bytes32"
        }
      ],
      "name": "kill",
      "outputs": [],
      "stateMutability": "nonpayable",
      "type": "function"
    },
    {
      "inputs": [
        {
          "internalType": "contract ERC20",
          "name": "pay_gem",
          "type": "address"
        },
        {
          "internalType": "contract ERC20",
          "name": "buy_gem",
          "type": "address"
        },
        {
          "internalType": "uint128",
          "name": "pay_amt",
          "type": "uint128"
        },
        {
          "internalType": "uint128",
          "name": "buy_amt",
          "type": "uint128"
        }
      ],
      "name": "make",
      "outputs": [
        {
          "internalType": "bytes32",
          "name": "id",
          "type": "bytes32"
        }
      ],
      "stateMutability": "nonpayable",
      "type": "function"
    },
    {
      "inputs": [
        {
          "internalType": "uint256",
          "name": "pay_amt",
          "type": "uint256"
        },
        {
          "internalType": "contract ERC20",
          "name": "pay_gem",
          "type": "address"
        },
        {
          "internalType": "uint256",
          "name": "buy_amt",
          "type": "uint256"
        },
        {
          "internalType": "contract ERC20",
          "name": "buy_gem",
          "type": "address"
        }
      ],
      "name": "offer",
      "outputs": [
        {
          "internalType": "uint256",
          "name": "id",
          "type": "uint256"
        }
      ],
      "stateMutability": "nonpayable",
      "type": "function"
    },
    {
      "inputs": [
        {
          "internalType": "bytes32",
          "name": "id",
          "type": "bytes32"
        },
        {
          "internalType": "uint128",
          "name": "maxTakeAmount",
          "type": "uint128"
        }
      ],
      "name": "take",
      "outputs": [],
      "stateMutability": "nonpayable",
      "type": "function"
    }
  ],
  "bytecode": "0x608060405234801561001057600080fd5b50612433806100206000396000f3fe608060405234801561001057600080fd5b50600436106100b45760003560e01c806382afd23b1161007157806382afd23b146101a25780638a72ea6a146101d2578063b4f9b6c814610207578063c41a360a14610223578063d6febde814610253578063f09ea2a614610283576100b4565b8063093f5198146100b9578063232cae0b146100e957806340e58ee5146101075780634579268a14610137578063496064551461016a578063779997c314610186575b600080fd5b6100d360048036038101906100ce91906119aa565b6102b3565b6040516100e09190611a2a565b60405180910390f35b6100f16102f2565b6040516100fe9190611a5e565b60405180910390f35b610121600480360381019061011c9190611aa5565b6102f8565b60405161012e9190611aed565b60405180910390f35b610151600480360381019061014c9190611aa5565b6106b5565b6040516101619493929190611b67565b60405180910390f35b610184600480360381019061017f9190611bd8565b610849565b005b6101a0600480360381019061019b9190611c18565b610875565b005b6101bc60048036038101906101b79190611aa5565b610a7c565b6040516101c99190611aed565b60405180910390f35b6101ec60048036038101906101e79190611aa5565b610abc565b6040516101fe96959493929190611c77565b60405180910390f35b610221600480360381019061021c9190611c18565b610b6c565b005b61023d60048036038101906102389190611aa5565b610b84565b60405161024a9190611cd8565b60405180910390f35b61026d60048036038101906102689190611cf3565b610bc4565b60405161027a9190611aed565b60405180910390f35b61029d60048036038101906102989190611d33565b6110d7565b6040516102aa9190611a5e565b60405180910390f35b60006102e5836fffffffffffffffffffffffffffffffff1686846fffffffffffffffffffffffffffffffff16876110d7565b60001b9050949350505050565b60005481565b60008161030481610a7c565b61030d57600080fd5b3373ffffffffffffffffffffffffffffffffffffffff1661032d82610b84565b73ffffffffffffffffffffffffffffffffffffffff161461034d57600080fd5b600260009054906101000a900460ff161561036757600080fd5b6001600260006101000a81548160ff0219169083151502179055506000600160008581526020019081526020016000206040518060c0016040529081600082015481526020016001820160009054906101000a900473ffffffffffffffffffffffffffffffffffffffff1673ffffffffffffffffffffffffffffffffffffffff1673ffffffffffffffffffffffffffffffffffffffff168152602001600282015481526020016003820160009054906101000a900473ffffffffffffffffffffffffffffffffffffffff1673ffffffffffffffffffffffffffffffffffffffff1673ffffffffffffffffffffffffffffffffffffffff1681526020016004820160009054906101000a900473ffffffffffffffffffffffffffffffffffffffff1673ffffffffffffffffffffffffffffffffffffffff1673ffffffffffffffffffffffffffffffffffffffff1681526020016004820160149054906101000a900467ffffffffffffffff1667ffffffffffffffff1667ffffffffffffffff16815250509050600160008581526020019081526020016000206000808201600090556001820160006101000a81549073ffffffffffffffffffffffffffffffffffffffff021916905560028201600090556003820160006101000a81549073ffffffffffffffffffffffffffffffffffffffff02191690556004820160006101000a81549073ffffffffffffffffffffffffffffffffffffffff02191690556004820160146101000a81549067ffffffffffffffff021916905550506105b9816020015182608001518360000151611518565b7fa2c251311b1a7a475913900a2a73dc9789a21b04bc737e050bbc506dd4eb3488846040516105e89190611a5e565b60405180910390a1806080015173ffffffffffffffffffffffffffffffffffffffff1681602001518260600151604051602001610626929190611de2565b604051602081830303815290604052805190602001208560001b7f9577941d28fff863bfbee4694a6a4a56fb09e169619189d2eaa750b5b4819995846020015185606001518660000151876040015142604051610687959493929190611e1d565b60405180910390a460019250506000600260006101000a81548160ff02191690831515021790555050919050565b6000806000806000600160008781526020019081526020016000206040518060c0016040529081600082015481526020016001820160009054906101000a900473ffffffffffffffffffffffffffffffffffffffff1673ffffffffffffffffffffffffffffffffffffffff1673ffffffffffffffffffffffffffffffffffffffff168152602001600282015481526020016003820160009054906101000a900473ffffffffffffffffffffffffffffffffffffffff1673ffffffffffffffffffffffffffffffffffffffff1673ffffffffffffffffffffffffffffffffffffffff1681526020016004820160009054906101000a900473ffffffffffffffffffffffffffffffffffffffff1673ffffffffffffffffffffffffffffffffffffffff1673ffffffffffffffffffffffffffffffffffffffff1681526020016004820160149054906101000a900467ffffffffffffffff1667ffffffffffffffff1667ffffffffffffffff1681525050905080600001518160200151826040015183606001519450945094509450509193509193565b6108688260001c826fffffffffffffffffffffffffffffffff16610bc4565b61087157600080fd5b5050565b8060001c61088281610a7c565b61088b57600080fd5b60008260001c90506001600082815260200190815260200160002060040160009054906101000a900473ffffffffffffffffffffffffffffffffffffffff1673ffffffffffffffffffffffffffffffffffffffff166001600083815260200190815260200160002060010160009054906101000a900473ffffffffffffffffffffffffffffffffffffffff166001600084815260200190815260200160002060030160009054906101000a900473ffffffffffffffffffffffffffffffffffffffff1660405160200161095f929190611de2565b60405160208183030381529060405280519060200120847f70a14c213064359ede031fd2a1645a11ce2ec825ffe6ab5cfb5b160c3ef4d0a26001600086815260200190815260200160002060010160009054906101000a900473ffffffffffffffffffffffffffffffffffffffff166001600087815260200190815260200160002060030160009054906101000a900473ffffffffffffffffffffffffffffffffffffffff1660016000888152602001908152602001600020600001546001600089815260200190815260200160002060020154600160008a815260200190815260200160002060040160149054906101000a900467ffffffffffffffff16604051610a6f959493929190611e1d565b60405180910390a4505050565b6000806001600084815260200190815260200160002060040160149054906101000a900467ffffffffffffffff1667ffffffffffffffff16119050919050565b60016020528060005260406000206000915090508060000154908060010160009054906101000a900473ffffffffffffffffffffffffffffffffffffffff16908060020154908060030160009054906101000a900473ffffffffffffffffffffffffffffffffffffffff16908060040160009054906101000a900473ffffffffffffffffffffffffffffffffffffffff16908060040160149054906101000a900467ffffffffffffffff16905086565b610b788160001c6102f8565b610b8157600080fd5b50565b60006001600083815260200190815260200160002060040160009054906101000a900473ffffffffffffffffffffffffffffffffffffffff169050919050565b600082610bd081610a7c565b610bd957600080fd5b600260009054906101000a900460ff1615610bf357600080fd5b6001600260006101000a81548160ff0219169083151502179055506000600160008681526020019081526020016000206040518060c0016040529081600082015481526020016001820160009054906101000a900473ffffffffffffffffffffffffffffffffffffffff1673ffffffffffffffffffffffffffffffffffffffff1673ffffffffffffffffffffffffffffffffffffffff168152602001600282015481526020016003820160009054906101000a900473ffffffffffffffffffffffffffffffffffffffff1673ffffffffffffffffffffffffffffffffffffffff1673ffffffffffffffffffffffffffffffffffffffff1681526020016004820160009054906101000a900473ffffffffffffffffffffffffffffffffffffffff1673ffffffffffffffffffffffffffffffffffffffff1673ffffffffffffffffffffffffffffffffffffffff1681526020016004820160149054906101000a900467ffffffffffffffff1667ffffffffffffffff1667ffffffffffffffff1681525050905060008160000151610d8d86846040015161159e565b610d979190611ece565b905080816fffffffffffffffffffffffffffffffff1614610db757600080fd5b84856fffffffffffffffffffffffffffffffff1614610dd557600080fd5b6000851480610de45750600081145b80610df25750816000015185115b80610e005750816040015181115b15610e10576000935050506110b5565b610e1e82600001518661160b565b6001600088815260200190815260200160002060000181905550610e4682604001518261160b565b6001600088815260200190815260200160002060020181905550610e74826060015133846080015184611664565b610e8382602001513387611518565b7fa2c251311b1a7a475913900a2a73dc9789a21b04bc737e050bbc506dd4eb348886604051610eb29190611a5e565b60405180910390a13373ffffffffffffffffffffffffffffffffffffffff16826080015173ffffffffffffffffffffffffffffffffffffffff1683602001518460600151604051602001610f07929190611de2565b604051602081830303815290604052805190602001207f3383e3357c77fd2e3a4b30deea81179bc70a795d053d14d5b7f2f01d0fd4596f8960001b866020015187606001518b8842604051610f6196959493929190611eff565b60405180910390a4816060015173ffffffffffffffffffffffffffffffffffffffff16826020015173ffffffffffffffffffffffffffffffffffffffff167f819e390338feffe95e2de57172d6faf337853dfd15c7a09a32d76f7fd24438758784604051610fd0929190611f60565b60405180910390a36000600160008881526020019081526020016000206000015414156110ae57600160008781526020019081526020016000206000808201600090556001820160006101000a81549073ffffffffffffffffffffffffffffffffffffffff021916905560028201600090556003820160006101000a81549073ffffffffffffffffffffffffffffffffffffffff02191690556004820160006101000a81549073ffffffffffffffffffffffffffffffffffffffff02191690556004820160146101000a81549067ffffffffffffffff021916905550505b6001935050505b6000600260006101000a81548160ff0219169083151502179055505092915050565b6000600260009054906101000a900460ff16156110f357600080fd5b6001600260006101000a81548160ff02191690831515021790555084856fffffffffffffffffffffffffffffffff161461112c57600080fd5b82836fffffffffffffffffffffffffffffffff161461114a57600080fd5b6000851161115757600080fd5b600073ffffffffffffffffffffffffffffffffffffffff168473ffffffffffffffffffffffffffffffffffffffff16141561119157600080fd5b6000831161119e57600080fd5b600073ffffffffffffffffffffffffffffffffffffffff168273ffffffffffffffffffffffffffffffffffffffff1614156111d857600080fd5b8173ffffffffffffffffffffffffffffffffffffffff168473ffffffffffffffffffffffffffffffffffffffff16141561121157600080fd5b61121961186b565b8581600001818152505084816020019073ffffffffffffffffffffffffffffffffffffffff16908173ffffffffffffffffffffffffffffffffffffffff16815250508381604001818152505082816060019073ffffffffffffffffffffffffffffffffffffffff16908173ffffffffffffffffffffffffffffffffffffffff168152505033816080019073ffffffffffffffffffffffffffffffffffffffff16908173ffffffffffffffffffffffffffffffffffffffff1681525050428160a0019067ffffffffffffffff16908167ffffffffffffffff16815250506112fd6116ed565b915080600160008481526020019081526020016000206000820151816000015560208201518160010160006101000a81548173ffffffffffffffffffffffffffffffffffffffff021916908373ffffffffffffffffffffffffffffffffffffffff1602179055506040820151816002015560608201518160030160006101000a81548173ffffffffffffffffffffffffffffffffffffffff021916908373ffffffffffffffffffffffffffffffffffffffff16021790555060808201518160040160006101000a81548173ffffffffffffffffffffffffffffffffffffffff021916908373ffffffffffffffffffffffffffffffffffffffff16021790555060a08201518160040160146101000a81548167ffffffffffffffff021916908367ffffffffffffffff16021790555090505061143a85333089611664565b7fa2c251311b1a7a475913900a2a73dc9789a21b04bc737e050bbc506dd4eb3488826040516114699190611a5e565b60405180910390a13373ffffffffffffffffffffffffffffffffffffffff16858460405160200161149b929190611de2565b604051602081830303815290604052805190602001208360001b7f773ff502687307abfa024ac9f62f9752a0d210dac2ffd9a29e38e12e2ea82c8288878b8a426040516114ec959493929190611e1d565b60405180910390a4506000600260006101000a81548160ff021916908315150217905550949350505050565b6115998363a9059cbb60e01b8484604051602401611537929190611f89565b604051602081830303815290604052907bffffffffffffffffffffffffffffffffffffffffffffffffffffffff19166020820180517bffffffffffffffffffffffffffffffffffffffffffffffffffffffff838183161783525050505061170e565b505050565b6000808214806115c65750828283856115b79190611fb2565b9250826115c49190611ece565b145b611605576040517f08c379a00000000000000000000000000000000000000000000000000000000081526004016115fc90612069565b60405180910390fd5b92915050565b600082828461161a9190612089565b915081111561165e576040517f08c379a000000000000000000000000000000000000000000000000000000000815260040161165590612109565b60405180910390fd5b92915050565b6116e7846323b872dd60e01b85858560405160240161168593929190612129565b604051602081830303815290604052907bffffffffffffffffffffffffffffffffffffffffffffffffffffffff19166020820180517bffffffffffffffffffffffffffffffffffffffffffffffffffffffff838183161783525050505061170e565b50505050565b600080600081548092919061170190612160565b9190505550600054905090565b6000823b905060008111611757576040517f08c379a000000000000000000000000000000000000000000000000000000000815260040161174e906121f5565b60405180910390fd5b6000808473ffffffffffffffffffffffffffffffffffffffff168460405161177f919061228f565b6000604051808303816000865af19150503d80600081146117bc576040519150601f19603f3d011682016040523d82523d6000602084013e6117c1565b606091505b509150915081611806576040517f08c379a00000000000000000000000000000000000000000000000000000000081526004016117fd906122f2565b60405180910390fd5b6000815111156118645780806020019051810190611824919061233e565b611863576040517f08c379a000000000000000000000000000000000000000000000000000000000815260040161185a906123dd565b60405180910390fd5b5b5050505050565b6040518060c0016040528060008152602001600073ffffffffffffffffffffffffffffffffffffffff16815260200160008152602001600073ffffffffffffffffffffffffffffffffffffffff168152602001600073ffffffffffffffffffffffffffffffffffffffff168152602001600067ffffffffffffffff1681525090565b600080fd5b600073ffffffffffffffffffffffffffffffffffffffff82169050919050565b600061191d826118f2565b9050919050565b600061192f82611912565b9050919050565b61193f81611924565b811461194a57600080fd5b50565b60008135905061195c81611936565b92915050565b60006fffffffffffffffffffffffffffffffff82169050919050565b61198781611962565b811461199257600080fd5b50565b6000813590506119a48161197e565b92915050565b600080600080608085870312156119c4576119c36118ed565b5b60006119d28782880161194d565b94505060206119e38782880161194d565b93505060406119f487828801611995565b9250506060611a0587828801611995565b91505092959194509250565b6000819050919050565b611a2481611a11565b82525050565b6000602082019050611a3f6000830184611a1b565b92915050565b6000819050919050565b611a5881611a45565b82525050565b6000602082019050611a736000830184611a4f565b92915050565b611a8281611a45565b8114611a8d57600080fd5b50565b600081359050611a9f81611a79565b92915050565b600060208284031215611abb57611aba6118ed565b5b6000611ac984828501611a90565b91505092915050565b60008115159050919050565b611ae781611ad2565b82525050565b6000602082019050611b026000830184611ade565b92915050565b6000819050919050565b6000611b2d611b28611b23846118f2565b611b08565b6118f2565b9050919050565b6000611b3f82611b12565b9050919050565b6000611b5182611b34565b9050919050565b611b6181611b46565b82525050565b6000608082019050611b7c6000830187611a4f565b611b896020830186611b58565b611b966040830185611a4f565b611ba36060830184611b58565b95945050505050565b611bb581611a11565b8114611bc057600080fd5b50565b600081359050611bd281611bac565b92915050565b60008060408385031215611bef57611bee6118ed565b5b6000611bfd85828601611bc3565b9250506020611c0e85828601611995565b9150509250929050565b600060208284031215611c2e57611c2d6118ed565b5b6000611c3c84828501611bc3565b91505092915050565b611c4e81611912565b82525050565b600067ffffffffffffffff82169050919050565b611c7181611c54565b82525050565b600060c082019050611c8c6000830189611a4f565b611c996020830188611b58565b611ca66040830187611a4f565b611cb36060830186611b58565b611cc06080830185611c45565b611ccd60a0830184611c68565b979650505050505050565b6000602082019050611ced6000830184611c45565b92915050565b60008060408385031215611d0a57611d096118ed565b5b6000611d1885828601611a90565b9250506020611d2985828601611a90565b9150509250929050565b60008060008060808587031215611d4d57611d4c6118ed565b5b6000611d5b87828801611a90565b9450506020611d6c8782880161194d565b9350506040611d7d87828801611a90565b9250506060611d8e8782880161194d565b91505092959194509250565b60008160601b9050919050565b6000611db282611d9a565b9050919050565b6000611dc482611da7565b9050919050565b611ddc611dd782611b46565b611db9565b82525050565b6000611dee8285611dcb565b601482019150611dfe8284611dcb565b6014820191508190509392505050565b611e1781611962565b82525050565b600060a082019050611e326000830188611b58565b611e3f6020830187611b58565b611e4c6040830186611e0e565b611e596060830185611e0e565b611e666080830184611c68565b9695505050505050565b7f4e487b7100000000000000000000000000000000000000000000000000000000600052601260045260246000fd5b7f4e487b7100000000000000000000000000000000000000000000000000000000600052601160045260246000fd5b6000611ed982611a45565b9150611ee483611a45565b925082611ef457611ef3611e70565b5b828204905092915050565b600060c082019050611f146000830189611a1b565b611f216020830188611b58565b611f2e6040830187611b58565b611f3b6060830186611e0e565b611f486080830185611e0e565b611f5560a0830184611c68565b979650505050505050565b6000604082019050611f756000830185611a4f565b611f826020830184611a4f565b9392505050565b6000604082019050611f9e6000830185611c45565b611fab6020830184611a4f565b9392505050565b6000611fbd82611a45565b9150611fc883611a45565b9250817fffffffffffffffffffffffffffffffffffffffffffffffffffffffffffffffff048311821515161561200157612000611e9f565b5b828202905092915050565b600082825260208201905092915050565b7f64732d6d6174682d6d756c2d6f766572666c6f77000000000000000000000000600082015250565b600061205360148361200c565b915061205e8261201d565b602082019050919050565b6000602082019050818103600083015261208281612046565b9050919050565b600061209482611a45565b915061209f83611a45565b9250828210156120b2576120b1611e9f565b5b828203905092915050565b7f64732d6d6174682d7375622d756e646572666c6f770000000000000000000000600082015250565b60006120f360158361200c565b91506120fe826120bd565b602082019050919050565b60006020820190508181036000830152612122816120e6565b9050919050565b600060608201905061213e6000830186611c45565b61214b6020830185611c45565b6121586040830184611a4f565b949350505050565b600061216b82611a45565b91507fffffffffffffffffffffffffffffffffffffffffffffffffffffffffffffffff82141561219e5761219d611e9f565b5b600182019050919050565b7f4e6f74206120636f6e7472616374000000000000000000000000000000000000600082015250565b60006121df600e8361200c565b91506121ea826121a9565b602082019050919050565b6000602082019050818103600083015261220e816121d2565b9050919050565b600081519050919050565b600081905092915050565b60005b8381101561224957808201518184015260208101905061222e565b83811115612258576000848401525b50505050565b600061226982612215565b6122738185612220565b935061228381856020860161222b565b80840191505092915050565b600061229b828461225e565b915081905092915050565b7f546f6b656e2063616c6c206661696c6564000000000000000000000000000000600082015250565b60006122dc60118361200c565b91506122e7826122a6565b602082019050919050565b6000602082019050818103600083015261230b816122cf565b9050919050565b61231b81611ad2565b811461232657600080fd5b50565b60008151905061233881612312565b92915050565b600060208284031215612354576123536118ed565b5b600061236284828501612329565b91505092915050565b7f5361666545524332303a204552433230206f7065726174696f6e20646964206e60008201527f6f74207375636365656400000000000000000000000000000000000000000000602082015250565b60006123c7602a8361200c565b91506123d28261236b565b604082019050919050565b600060208201905081810360008301526123f6816123ba565b905091905056fea2646970667358221220de9012a900b8985d1b56d4f3828f0bf364d1e151ed2343ea2d79e5b2a5d7c81764736f6c634300080a0033",
  "immutableReferences": {},
  "source": "// SPDX-License-Identifier: AGPL-3.0-or-later\r\n\r\n/// simple_market.sol\r\n\r\n// Copyright (C) 2016 - 2021 Dai Foundation\r\n\r\n//\r\n// This program is free software: you can redistribute it and/or modify\r\n// it under the terms of the GNU Affero General Public License as published by\r\n// the Free Software Foundation, either version 3 of the License, or\r\n// (at your option) any later version.\r\n//\r\n// This program is distributed in the hope that it will be useful,\r\n// but WITHOUT ANY WARRANTY; without even the implied warranty of\r\n// MERCHANTABILITY or FITNESS FOR A PARTICULAR PURPOSE.  See the\r\n// GNU Affero General Public License for more details.\r\n//\r\n// You should have received a copy of the GNU Affero General Public License\r\n// along with this program.  If not, see <https://www.gnu.org/licenses/>.\r\n\r\npragma solidity >=0.5.12 <0.9.0;\r\n\r\nimport \"./DSMath.sol\";\r\nimport \"./erc20.sol\";\r\n\r\ncontract EventfulMarket {\r\n    event LogItemUpdate(uint id);\r\n    event LogTrade(uint pay_amt, address indexed pay_gem,\r\n                   uint buy_amt, address indexed buy_gem);\r\n\r\n    event LogMake(\r\n        bytes32  indexed  id,\r\n        bytes32  indexed  pair,\r\n        address  indexed  maker,\r\n        ERC20             pay_gem,\r\n        ERC20             buy_gem,\r\n        uint128           pay_amt,\r\n        uint128           buy_amt,\r\n        uint64            timestamp\r\n    );\r\n\r\n    event LogBump(\r\n        bytes32  indexed  id,\r\n        bytes32  indexed  pair,\r\n        address  indexed  maker,\r\n        ERC20             pay_gem,\r\n        ERC20             buy_gem,\r\n        uint128           pay_amt,\r\n        uint128           buy_amt,\r\n        uint64            timestamp\r\n    );\r\n\r\n    event LogTake(\r\n        bytes32           id,\r\n        bytes32  indexed  pair,\r\n        address  indexed  maker,\r\n        ERC20             pay_gem,\r\n        ERC20             buy_gem,\r\n        address  indexed  taker,\r\n        uint128           take_amt,\r\n        uint128           give_amt,\r\n        uint64            timestamp\r\n    );\r\n\r\n    event LogKill(\r\n        bytes32  indexed  id,\r\n        bytes32  indexed  pair,\r\n        address  indexed  maker,\r\n        ERC20             pay_gem,\r\n        ERC20             buy_gem,\r\n        uint128           pay_amt,\r\n        uint128           buy_amt,\r\n        uint64            timestamp\r\n    );\r\n}\r\n\r\ncontract SimpleMarket is EventfulMarket, DSMath {\r\n\r\n    uint public last_offer_id;\r\n\r\n    mapping (uint => OfferInfo) public offers;\r\n\r\n    bool locked;\r\n\r\n    struct OfferInfo {\r\n        uint     pay_amt;\r\n        ERC20    pay_gem;\r\n        uint     buy_amt;\r\n        ERC20    buy_gem;\r\n        address  owner;\r\n        uint64   timestamp;\r\n    }\r\n\r\n    modifier can_buy(uint id) {\r\n        require(isActive(id));\r\n        _;\r\n    }\r\n\r\n    modifier can_cancel(uint id) {\r\n        require(isActive(id));\r\n        require(getOwner(id) == msg.sender);\r\n        _;\r\n    }\r\n\r\n    modifier can_offer {\r\n        _;\r\n    }\r\n\r\n    modifier synchronized {\r\n        require(!locked);\r\n        locked = true;\r\n        _;\r\n        locked = false;\r\n    }\r\n\r\n    function isActive(uint id) public view returns (bool active) {\r\n        return offers[id].timestamp > 0;\r\n    }\r\n\r\n    function getOwner(uint id) public view returns (address owner) {\r\n        return offers[id].owner;\r\n    }\r\n\r\n    function getOffer(uint id) public view returns (uint, ERC20, uint, ERC20) {\r\n      OfferInfo memory offer = offers[id];\r\n      return (offer.pay_amt, offer.pay_gem,\r\n              offer.buy_amt, offer.buy_gem);\r\n    }\r\n\r\n    // ---- Public entrypoints ---- //\r\n\r\n    function bump(bytes32 id_)\r\n        public\r\n        can_buy(uint256(id_))\r\n    {\r\n        uint256 id = uint256(id_);\r\n        emit LogBump(\r\n            id_,\r\n            keccak256(abi.encodePacked(offers[id].pay_gem, offers[id].buy_gem)),\r\n            offers[id].owner,\r\n            offers[id].pay_gem,\r\n            offers[id].buy_gem,\r\n            uint128(offers[id].pay_amt),\r\n            uint128(offers[id].buy_amt),\r\n            offers[id].timestamp\r\n        );\r\n    }\r\n\r\n    // Accept given `quantity` of an offer. Transfers funds from caller to\r\n    // offer maker, and from market to caller.\r\n    function buy(uint id, uint quantity)\r\n        public\r\n        can_buy(id)\r\n        synchronized\r\n        returns (bool)\r\n    {\r\n        OfferInfo memory offer = offers[id];\r\n        uint spend = mul(quantity, offer.buy_amt) / offer.pay_amt;\r\n\r\n        require(uint128(spend) == spend);\r\n        require(uint128(quantity) == quantity);\r\n\r\n        // For backwards semantic compatibility.\r\n        if (quantity == 0 || spend == 0 ||\r\n            quantity > offer.pay_amt || spend > offer.buy_amt)\r\n        {\r\n            return false;\r\n        }\r\n\r\n        offers[id].pay_amt = sub(offer.pay_amt, quantity);\r\n        offers[id].buy_amt = sub(offer.buy_amt, spend);\r\n        safeTransferFrom(offer.buy_gem, msg.sender, offer.owner, spend);\r\n        safeTransfer(offer.pay_gem, msg.sender, quantity);\r\n\r\n        emit LogItemUpdate(id);\r\n        emit LogTake(\r\n            bytes32(id),\r\n            keccak256(abi.encodePacked(offer.pay_gem, offer.buy_gem)),\r\n            offer.owner,\r\n            offer.pay_gem,\r\n            offer.buy_gem,\r\n            msg.sender,\r\n            uint128(quantity),\r\n            uint128(spend),\r\n            uint64(block.timestamp)\r\n        );\r\n        emit LogTrade(quantity, address(offer.pay_gem), spend, address(offer.buy_gem));\r\n\r\n        if (offers[id].pay_amt == 0) {\r\n          delete offers[id];\r\n        }\r\n\r\n        return true;\r\n    }\r\n\r\n    // Cancel an offer. Refunds offer maker.\r\n    function cancel(uint id)\r\n        public\r\n        can_cancel(id)\r\n        synchronized\r\n        returns (bool success)\r\n    {\r\n        // read-only offer. Modify an offer by directly accessing offers[id]\r\n        OfferInfo memory offer = offers[id];\r\n        delete offers[id];\r\n\r\n        safeTransfer(offer.pay_gem, offer.owner, offer.pay_amt);\r\n\r\n        emit LogItemUpdate(id);\r\n        emit LogKill(\r\n            bytes32(id),\r\n            keccak256(abi.encodePacked(offer.pay_gem, offer.buy_gem)),\r\n            offer.owner,\r\n            offer.pay_gem,\r\n            offer.buy_gem,\r\n            uint128(offer.pay_amt),\r\n            uint128(offer.buy_amt),\r\n            uint64(block.timestamp)\r\n        );\r\n\r\n        success = true;\r\n    }\r\n\r\n    function kill(bytes32 id)\r\n        public\r\n    {\r\n        require(cancel(uint256(id)));\r\n    }\r\n\r\n    function make(\r\n        ERC20    pay_gem,\r\n        ERC20    buy_gem,\r\n        uint128  pay_amt,\r\n        uint128  buy_amt\r\n    )\r\n        public\r\n        returns (bytes32 id)\r\n    {\r\n        return bytes32(offer(pay_amt, pay_gem, buy_amt, buy_gem));\r\n    }\r\n\r\n    // Make a new offer. Takes funds from the caller into market escrow.\r\n    function offer(uint pay_amt, ERC20 pay_gem, uint buy_amt, ERC20 buy_gem)\r\n        public\r\n        can_offer\r\n        synchronized\r\n        returns (uint id)\r\n    {\r\n        require(uint128(pay_amt) == pay_amt);\r\n        require(uint128(buy_amt) == buy_amt);\r\n        require(pay_amt > 0);\r\n        require(pay_gem != ERC20(address(0)));\r\n        require(buy_amt > 0);\r\n        require(buy_gem != ERC20(address(0)));\r\n        require(pay_gem != buy_gem);\r\n\r\n        OfferInfo memory info;\r\n        info.pay_amt = pay_amt;\r\n        info.pay_gem = pay_gem;\r\n        info.buy_amt = buy_amt;\r\n        info.buy_gem = buy_gem;\r\n        info.owner = msg.sender;\r\n        info.timestamp = uint64(block.timestamp);\r\n        id = _next_id();\r\n        offers[id] = info;\r\n\r\n        safeTransferFrom(pay_gem, msg.sender, address(this), pay_amt);\r\n\r\n        emit LogItemUpdate(id);\r\n        emit LogMake(\r\n            bytes32(id),\r\n            keccak256(abi.encodePacked(pay_gem, buy_gem)),\r\n            msg.sender,\r\n            pay_gem,\r\n            buy_gem,\r\n            uint128(pay_amt),\r\n            uint128(buy_amt),\r\n            uint64(block.timestamp)\r\n        );\r\n    }\r\n\r\n    function take(bytes32 id, uint128 maxTakeAmount)\r\n        public\r\n    {\r\n        require(buy(uint256(id), maxTakeAmount));\r\n    }\r\n\r\n    function _next_id()\r\n        internal\r\n        returns (uint)\r\n    {\r\n        last_offer_id++; return last_offer_id;\r\n    }\r\n\r\n    function safeTransfer(ERC20 token, address to, uint256 value) internal {\r\n        _callOptionalReturn(token, abi.encodeWithSelector(token.transfer.selector, to, value));\r\n    }\r\n\r\n    function safeTransferFrom(ERC20 token, address from, address to, uint256 value) internal {\r\n        _callOptionalReturn(token, abi.encodeWithSelector(token.transferFrom.selector, from, to, value));\r\n    }\r\n\r\n    function _callOptionalReturn(ERC20 token, bytes memory data) private {\r\n        uint256 size;\r\n        assembly { size := extcodesize(token) }\r\n        require(size > 0, \"Not a contract\");\r\n\r\n        (bool success, bytes memory returndata) = address(token).call(data);\r\n        require(success, \"Token call failed\");\r\n        if (returndata.length > 0) { // Return data is optional\r\n            require(abi.decode(returndata, (bool)), \"SafeERC20: ERC20 operation did not succeed\");\r\n        }\r\n    }\r\n}\r\n",
  "sourcePath": "/mnt/c/users/rhk59/documents/github/blockchain-developer-bootcamp-final-project/contracts/simple_market.sol",
  "compiler": {
    "name": "solc",
    "version": "0.8.10+commit.fc410830.Emscripten.clang"
  },
  "schemaVersion": "3.4.3",
  "updatedAt": "2021-11-29T22:27:02.462Z",
  "devdoc": {
    "kind": "dev",
    "methods": {},
    "version": 1
  },
  "userdoc": {
    "kind": "user",
    "methods": {},
    "version": 1
  }
}